:0400000007EF00F016
:0A0008006F82C9ED10F0C2EF1AF08C
:101000000000000E0101016F000E026F000E036F61
:10101000000E046F0001FB51D8A411EF08F013EF8C
:1010200008F03AEF0AF0000E0101006F84EF0AF0B9
:10103000AC98AC94B896FB51D96EDA6ADECFFCF06E
:10104000DDCFFDF0FCC011F0FDC012F0136A146A90
:10105000000E7DEC13F011C03CF012C03DF013C047
:101060003EF014C03FF0000E386E240E396EF40EC0
:101070003A6E4A0E3B6EFCEC0EF038C005F139C0FA
:1010800006F13AC007F13BC008F1000E3C6E000EBD
:101090003D6E800E3E6E420E3F6E05C138F006C1B9
:1010A00039F007C13AF008C13BF0FCEC0EF038C053
:1010B00051F039C052F03AC053F03BC054F0000E2A
:1010C000556E000E566E800E576EBF0E586E86EC33
:1010D0000AF051C001F152C002F153C003F154C0F3
:1010E00004F164EF0AF0AC98AC84B896FB51D96E69
:1010F000DA6ADECFFCF0DDCFFDF0FCC011F0FDC000
:1011000012F0136A146A000E7DEC13F011C03CF06B
:1011100012C03DF013C03EF014C03FF0000E386E18
:10112000240E396EF40E3A6E4A0E3B6EFCEC0EF055
:1011300038C005F139C006F13AC007F13BC008F1EB
:10114000000E3C6E000E3D6E800E3E6E410E3F6EF8
:1011500005C138F006C139F007C13AF008C13BF0CB
:10116000FCEC0EF038C051F039C052F03AC053F0E8
:101170003BC054F0000E556E000E566E800E576E3A
:10118000BF0E586E86EC0AF051C001F152C002F158
:1011900053C003F154C004F164EF0AF0AC98AC946E
:1011A000B886FB51D96EDA6ADECFFCF0DDCFFDF0F8
:1011B000FCC011F0FDC012F0136A146A000E7DEC41
:1011C00013F011C03CF012C03DF013C03EF014C04B
:1011D0003FF0000E386E240E396EF40E3A6E4A0E51
:1011E0003B6EFCEC0EF038C005F139C006F13AC098
:1011F00007F13BC008F1000E3C6E000E3D6E800E04
:101200003E6E410E3F6E05C138F006C139F007C190
:101210003AF008C13BF0FCEC0EF038C051F039C098
:1012200052F03AC053F03BC054F0000E556E000E21
:10123000566E800E576EBF0E586E86EC0AF051C087
:1012400001F152C002F153C003F154C004F164EF44
:101250000AF0AC98AC84B886FB51D96EDA6ADECF5E
:10126000FCF0DDCFFDF0FCC011F0FDC012F0136A00
:10127000146A000E7DEC13F011C03CF012C03DF07A
:1012800013C03EF014C03FF0000E386E240E396ECD
:10129000F40E3A6E4A0E3B6EFCEC0EF038C005F1CF
:1012A00039C006F13AC007F13BC008F1000E3C6EB0
:1012B000000E3D6E800E3E6E400E3F6E05C138F052
:1012C00006C139F007C13AF008C13BF0FCEC0EF062
:1012D00038C051F039C052F03AC053F03BC054F01E
:1012E000000E556E000E566E800E576EBF0E586E75
:1012F00086EC0AF051C001F152C002F153C003F173
:1013000054C004F164EF0AF0AC88B896FB51D96E72
:10131000DA6ADECFFCF0DDCFFDF0FCC011F0FDC0DD
:1013200012F0136A146A000E7DEC13F011C03CF049
:1013300012C03DF013C03EF014C03FF0000E386EF6
:10134000240E396EF40E3A6E4A0E3B6EFCEC0EF033
:1013500038C005F139C006F13AC007F13BC008F1C9
:10136000000E3C6E000E3D6E800E3E6E400E3F6ED7
:1013700005C138F006C139F007C13AF008C13BF0A9
:10138000FCEC0EF038C051F039C052F03AC053F0C6
:101390003BC054F0000E556E000E566E800E576E18
:1013A000BF0E586E86EC0AF051C001F152C002F136
:1013B00053C003F154C004F164EF0AF0AC88B8865E
:1013C000FB51D96EDA6ADECFFCF0DDCFFDF0FCC058
:1013D00011F0FDC012F0136A146A000E7DEC13F0D8
:1013E00011C03CF012C03DF013C03EF014C03FF0FD
:1013F000000E386E240E396EF40E3A6E4A0E3B6EB5
:10140000FCEC0EF038C005F139C006F13AC007F126
:101410003BC008F1000E3C6E000E3D6E800E3E6E2D
:10142000400E3F6E05C138F006C139F007C13AF0F1
:1014300008C13BF0FCEC0EF038C051F039C052F05E
:101440003AC053F03BC054F0000E556E000E566E7D
:10145000800E576EBF0E586E86EC0AF051C001F137
:1014600052C002F153C003F154C004F164EF0AF01A
:1014700064EF0AF0FB51D96EDA6A020ED926DF500A
:10148000FC6FFD6BFD51000AD8B449EF0AF038EF4C
:101490000AF0FC51000AD8B418EF08F0010AD8B4D9
:1014A00073EF08F0030AD8B4CEEF08F0010AD8B4FD
:1014B00029EF09F0070AD8B484EF09F0010AD8B47B
:1014C000DEEF09F038EF0AF001C1F3F002C1F4F0E9
:1014D00003C1F5F004C1F6F011EC17F00001F3516F
:1014E000AF6E01C1F3F002C1F4F003C1F5F004C125
:1014F000F6F011EC17F00001F4C0F3F0F46BF351C7
:10150000B06E010E0101006F005112005450800BAB
:101510000001EF6F54505424F16F53AE92EF0AF074
:1015200094EF0AF095EF0AF0F181F151D8B49BEFF6
:101530000AF09DEF0AF0B2EF0AF0F129D8A4A3EF68
:101540000AF0A5EF0AF0ADEF0AF0000E516E000EA2
:10155000526E000E536E000E546E538E000E546E7B
:10156000BAEF0AF0000E516E000E526E000E536E6E
:10157000000E546E5850800BF06FEF51F019D8B434
:10158000C4EF0AF0C6EF0AF0C7EF0AF0EF8D58502B
:101590005824F06F57AECFEF0AF0D1EF0AF0D2EF38
:1015A0000AF0F081F051D8B4D8EF0AF0DAEF0AF07F
:1015B000EFEF0AF0F029D8A4E0EF0AF0E2EF0AF02A
:1015C000EAEF0AF0000E556E000E566E000E576ED2
:1015D000000E586E578E000E586EF7EF0AF0000E90
:1015E000556E000E566E000E576E000E586EF1517D
:1015F000F05DD8B0FEEF0AF000EF0BF027EF0BF034
:10160000EFAD05EF0BF007EF0BF009EF0BF0800EDD
:10161000EF1BF1C0F2F0F0C0F1F0F2C0F0F051C0F9
:10162000F2F055C051F0F2C055F052C0F2F056C081
:1016300052F0F2C056F053C0F2F057C053F0F2C06F
:1016400057F054C0F2F058C054F0F2C058F0000EF9
:10165000F26FF151F0C059F05A6A595E000E5A5AB1
:101660005ABE3CEF0BF05A5009E11A0E595CD8A053
:101670003CEF0BF03EEF0BF075EF0BF051505210BA
:1016800053105410D8A447EF0BF04AEF0BF0010EA3
:101690004BEF0BF0000EF26F000E516E000E526E0B
:1016A000000E536E000E546EF0C0F1F07EEF0BF0A2
:1016B000F2A15DEF0BF05FEF0BF065EF0BF0D89050
:1016C000F2310109F26F67EF0BF0D890F23351A0BD
:1016D0006CEF0BF06EEF0BF06FEF0BF0F28F5434FA
:1016E0005432533252325132F12BF051F15DD8A0C5
:1016F0007CEF0BF07EEF0BF058EF0BF0EFBD83EFBC
:101700000BF085EF0BF0C5EF0BF0F151D8A48BEF88
:101710000BF08DEF0BF097EF0BF0000E516E000EFB
:10172000526E000E536E000E546EE6EF0CF05550E4
:10173000512656505222575053225850542254A0EA
:10174000A4EF0BF0A6EF0BF052EF0CF0F2A1ABEF11
:101750000BF0ADEF0BF0B3EF0BF0D890F2310109C5
:10176000F26FB5EF0BF0D890F23351A0BAEF0BF057
:10177000BCEF0BF0BDEF0BF0F28F54345432533208
:1017800052325132F12B52EF0CF05550515C565001
:101790005258575053585450800A596E5850800A26
:1017A0005958D8B0D6EF0BF0D8EF0BF003EF0CF090
:1017B0005150555C596E525056585A6E53505758A6
:1017C0005B6E545058585C6EFF0E5924516EFF0EDC
:1017D0005A20526EFF0E5B20536EFF0E5C20546E3B
:1017E000800EEF1BF26DF251D8A4F9EF0BF0FBEF76
:1017F0000BF00BEF0CF0010E5126000E522253227B
:1018000054220BEF0CF05550515E5650525A57501F
:10181000535A5850545A5150521053105410D8A47F
:1018200014EF0CF016EF0CF04BEF0CF0F251D8A4C3
:101830001CEF0CF01EEF0CF04BEF0CF0000E516E95
:10184000000E526E000E536E000E546EE6EF0CF05A
:10185000D8905136523653365436F2AF32EF0CF040
:1018600034EF0CF035EF0CF05180F2A13AEF0CF0B0
:101870003CEF0CF040EF0CF0D880F23742EF0CF068
:10188000D890F237F151D8B448EF0CF04AEF0CF091
:101890004BEF0CF0F10753AE50EF0CF052EF0CF0A1
:1018A00028EF0CF0000EF06FF2AF59EF0CF05BEF89
:1018B0000CF073EF0CF0F2C059F07F0E5916D8B44B
:1018C00064EF0CF066EF0CF06AEF0CF0010EF06FB5
:1018D00073EF0CF051A06FEF0CF071EF0CF073EFA1
:1018E0000CF066EF0CF0F051D8B479EF0CF07BEF10
:1018F0000CF0A6EF0CF0010E5126000E52225322DE
:10190000542254A086EF0CF088EF0CF0A6EF0CF0F8
:1019100051C059F052C05AF053C05BF054C05CF053
:101920005C345C325B325A32593259C051F05AC081
:1019300052F05BC053F05CC054F0F129D8B4A3EF6F
:101940000CF0A5EF0CF0A6EF0CF0F12BF129D8B4B8
:10195000ACEF0CF0AEEF0CF0B6EF0CF0F151D8A4F8
:10196000B4EF0CF0B6EF0CF0C8EF0CF0000E516EB7
:10197000000E526E000E536E000E546EF151D8A43C
:10198000C4EF0CF0C6EF0CF0C8EF0CF0000EEF6FD8
:10199000F1A1CDEF0CF0CFEF0CF0D2EF0CF0538EA5
:1019A000D3EF0CF0539ED890F131546EEFAFDBEFD4
:1019B0000CF0DDEF0CF0DEEF0CF0548E51C051F066
:1019C00052C052F053C053F054C054F01200225091
:1019D000800B2B6E22502224316E21AEF2EF0CF0E0
:1019E000F4EF0CF0F5EF0CF031803150D8B4FBEF90
:1019F0000CF0FDEF0CF010EF0DF03128D8A403EF40
:101A00000DF005EF0DF00DEF0DF0000E1F6E000E46
:101A1000206E000E216E000E226E218E18EF0DF04A
:101A2000000E1F6E000E206E000E216E000E226E44
:101A30002650800B2B1A265026242C6E25AE23EF21
:101A40000DF025EF0DF026EF0DF02C802C50D8B4C2
:101A50002CEF0DF02EEF0DF041EF0DF02C28D8A457
:101A600034EF0DF036EF0DF03EEF0DF0000E236E6B
:101A7000000E246E000E256E000E266E258E49EF98
:101A80000DF0000E236E000E246E000E256E000E6B
:101A9000266E2C50D8B44FEF0DF051EF0DF059EFEA
:101AA0000DF03150D8A457EF0DF059EF0DF063EF62
:101AB0000DF0000E1F6E000E206E000E216E000E47
:101AC000226EFBEF0EF025501F02F3CF36F0F4CF5D
:101AD00037F036502D6E2E6A2F6A306A3750326ECC
:101AE000336A346A356A24502002F3CF36F0F4CFDB
:101AF00037F036502D26000E2E222F22302237505E
:101B00003226000E33223422352223502102F3CF15
:101B100036F0F4CF37F036502D26000E2E222F222D
:101B2000302237503226000E3322342235222FC085
:101B300030F02EC02FF02DC02EF02D6A2350200241
:101B4000F3CF36F0F4CF37F036502D2637502E2213
:101B5000000E2F22000E302224501F02F3CF36F049
:101B6000F4CF37F036502D2637502E22000E2F227C
:101B7000000E30222FC030F02EC02FF02DC02EF0DE
:101B80002D6A23501F02F3CF36F0F4CF37F03650D2
:101B90002D2637502E22000E2F22000E30222550E7
:101BA0002002F3CF36F0F4CF37F0365032263750DC
:101BB0003322000E3422000E352224502102F3CFAE
:101BC00036F0F4CF37F03650322637503322000E3D
:101BD0003422000E352225502102F3CF36F0F4CF07
:101BE00037F03650276E3750286E296A2A6A29C086
:101BF0002AF028C029F027C028F0276A275032266B
:101C000028503322295034222A5035222DC027F063
:101C10002EC028F02FC029F030C02AF0190E16EF80
:101C20000EF0D8902A32293228322732E82E11EFCE
:101C30000EF02750322628503322295034222A50C1
:101C400035222FC030F02EC02FF02DC02EF02D6A7F
:101C50002C5031C027F0286A2726000E2822820E39
:101C60002724366EFF0E2820376E4CEF0EF0D890EA
:101C7000323633363436353630AE41EF0EF043EF80
:101C80000EF044EF0EF03280D8902D362E362F36DF
:101C900030363606D8A0370634AE51EF0EF053EF8B
:101CA0000EF037EF0EF0000E2C6E30AE5AEF0EF045
:101CB0005CEF0EF080EF0EF0FF0E2D14276EFF0E7E
:101CC0002E14286EFF0E2F14296E7F0E30142A6EEC
:101CD0002750281029102A10D8B471EF0EF073EF96
:101CE0000EF077EF0EF0010E2C6E80EF0EF032A0AA
:101CF0007CEF0EF07EEF0EF080EF0EF073EF0EF043
:101D00002C50D8B486EF0EF088EF0EF0ACEF0EF04A
:101D1000010E3226000E33223422352235A093EFF5
:101D20000EF095EF0EF0ACEF0EF032C027F033C09E
:101D300028F034C029F035C02AF02A342A3229325A
:101D40002832273227C032F028C033F029C034F0BF
:101D50002AC035F0364A372A37BEB7EF0EF0375073
:101D600008E13628D8A0B7EF0EF0B9EF0EF0C3EFB8
:101D70000EF0000E326E000E336E800E346E7F0E4B
:101D8000356EF1EF0EF037BED0EF0EF0375006E1B2
:101D90003604D8B0CEEF0EF0D0EF0EF0DCEF0EF040
:101DA000000E326E000E336E000E346E000E356E75
:101DB000000E2B6EF1EF0EF036C031F0FF0E321632
:101DC000FF0E33167F0E3416000E351631A0EBEFE2
:101DD0000EF0EDEF0EF0EEEF0EF0348ED8903130C5
:101DE000356E2B50351232C01FF033C020F034C096
:101DF00021F035C022F012003B50800B486E3B5062
:101E00003B244F6E3AAE07EF0FF009EF0FF00AEFE9
:101E10000FF04F804F50D8B410EF0FF012EF0FF0CB
:101E200027EF0FF04F28D8A418EF0FF01AEF0FF09C
:101E300022EF0FF0000E386E000E396E000E3A6E73
:101E4000000E3B6E3A8E000E3B6E2FEF0FF0000E31
:101E5000386E000E396E000E3A6E000E3B6E3F502B
:101E6000800B481A3F503F24506E3EAE3AEF0FF0C1
:101E70003CEF0FF03DEF0FF050805050D8B443EFDF
:101E80000FF045EF0FF05AEF0FF05028D8A44BEFAA
:101E90000FF04DEF0FF055EF0FF0000E3C6E000EFF
:101EA0003D6E000E3E6E000E3F6E3E8E000E3F6E8B
:101EB00062EF0FF0000E3C6E000E3D6E000E3E6EA7
:101EC000000E3F6E3C503D103E103F10D8A46BEF0B
:101ED0000FF06DEF0FF085EF0FF0000E386E000E73
:101EE000396E000E3A6E000E3B6E800E3A127F0E77
:101EF0003B1248503B1238C038F039C039F03AC074
:101F00003AF03BC03BF0C8EF10F04F50D8A48BEF35
:101F10000FF08DEF0FF097EF0FF0000E386E000E00
:101F2000396E000E3A6E000E3B6EC8EF10F0505046
:101F30004FC040F0416A405E000E415A7F0E40247F
:101F4000496E000E41204A6E38C044F039C045F059
:101F50003AC046F03BC047F0000E386E000E396EB6
:101F6000000E3A6E000E3B6E000E4B6E000E4C6E75
:101F7000000E4D6E000E4E6E000E506EF8EF0FF01C
:101F80005050D8B4C6EF0FF0C8EF0FF0DFEF0FF0EE
:101F9000D8904436453646364736D89038363936A6
:101FA0003A363B364EAED7EF0FF0D9EF0FF0DAEFFF
:101FB0000FF03880D8904B364C364D364E363C506C
:101FC000445C3D5045583E5046583F504758D8A075
:101FD000ECEF0FF0EEEF0FF0F7EF0FF04E8C3C5000
:101FE000445E3D50455A3E50465A3F50475A502A4B
:101FF000190E5064FEEF0FF000EF10F0C0EF0FF07D
:102000004450451046104710D8B409EF10F00BEFBC
:1020100010F023EF10F04B8023EF10F0D8903836FB
:1020200039363A363B364EAE18EF10F01AEF10F054
:102030001BEF10F03880D8904B364C364D364E366C
:102040004906D8A04A063AAE28EF10F02AEF10F061
:102050000EEF10F0000E506E4EAE31EF10F033EF79
:1020600010F057EF10F0FF0E4B14406EFF0E4C14A3
:10207000416EFF0E4D14426E7F0E4E14436E405063
:10208000411042104310D8B448EF10F04AEF10F05E
:102090004EEF10F0010E506E57EF10F038A053EFD6
:1020A00010F055EF10F057EF10F04AEF10F05050CD
:1020B000D8B45DEF10F05FEF10F083EF10F0010E79
:1020C0003826000E39223A223B223BA06AEF10F05C
:1020D0006CEF10F083EF10F038C040F039C041F0E1
:1020E0003AC042F03BC043F04334433242324132C3
:1020F000403240C038F041C039F042C03AF043C0ED
:102100003BF0494A4A2A4ABE8EEF10F04A5008E195
:102110004928D8A08EEF10F090EF10F09BEF10F050
:10212000000E4A6E4968000E386E000E396E000EC1
:102130003A6E000E3B6E4ABEA8EF10F04A5006E120
:102140004904D8B0A6EF10F0A8EF10F0B6EF10F0E9
:10215000000E4A6E000E496E000E386E000E396E8B
:10216000000E3A6E000E3B6E000E486E49C04FF0F6
:102170004FA0BDEF10F0BFEF10F0C2EF10F03A8E9D
:10218000C3EF10F03A9ED8904F303B6E79EF0FF0CE
:1021900012000600FACF0BF0FBCF0CF0D9CF0DF0F8
:1021A000DACF0EF0F3CF0FF0F4CF10F0F2A8DBEFA0
:1021B00010F0DDEF10F0E6EF10F0F2A2E2EF10F019
:1021C000E4EF10F0E6EF10F096EC1CF0F0A6EBEF69
:1021D00010F0EDEF10F0F6EF10F0F0A0F2EF10F0CD
:1021E000F4EF10F0F6EF10F094EC1CF0F0A8FBEF19
:1021F00010F0FDEF10F006EF11F0F0A202EF11F079
:1022000004EF11F006EF11F092EC1CF0F2A60BEFC8
:1022100011F00DEF11F028EF11F0F2A012EF11F014
:1022200014EF11F028EF11F081A819EF11F01BEF56
:1022300011F028EF11F06C04D8A421EF11F023EF76
:1022400011F028EF11F0000E6C6E000E64EC1CF023
:10225000F2A62DEF11F02FEF11F04AEF11F0F2A0DE
:1022600034EF11F036EF11F04AEF11F081B83BEF87
:1022700011F03DEF11F04AEF11F06C50D8A443EF8C
:1022800011F045EF11F04AEF11F0010E6C6E010EE6
:1022900064EC1CF0F2A64FEF11F051EF11F06CEF6F
:1022A00011F0F2A056EF11F058EF11F06CEF11F0B1
:1022B00081AA5DEF11F05FEF11F06CEF11F06B048C
:1022C000D8A465EF11F067EF11F06CEF11F0000E7C
:1022D0006B6E000E57EC1CF0F2A671EF11F073EF6D
:1022E00011F08EEF11F0F2A078EF11F07AEF11F00B
:1022F0008EEF11F081BA7FEF11F081EF11F08EEFC8
:1023000011F06B50D8A487EF11F089EF11F08EEF28
:1023100011F0010E6B6E010E57EC1CF0F2A693EF5C
:1023200011F095EF11F0B0EF11F0F2A09AEF11F06B
:102330009CEF11F0B0EF11F081ACA1EF11F0A3EF21
:1023400011F0B0EF11F06A04D8A4A9EF11F0ABEFCF
:1023500011F0B0EF11F0000E6A6E000E4AEC1CF0A6
:10236000F2A6B5EF11F0B7EF11F0D2EF11F0F2A035
:10237000BCEF11F0BEEF11F0D2EF11F081BCC3EF52
:1023800011F0C5EF11F0D2EF11F06A50D8A4CBEFE5
:1023900011F0CDEF11F0D2EF11F0010E6A6E010EC7
:1023A0004AEC1CF0F2A6D7EF11F0D9EF11F0F4EFE0
:1023B00011F0F2A0DEEF11F0E0EF11F0F4EF11F008
:1023C00081AEE5EF11F0E7EF11F0F4EF11F06904E1
:1023D000D8A4EDEF11F0EFEF11F0F4EF11F0000ED3
:1023E000696E000E3DEC1CF0F2A6F9EF11F0FBEF68
:1023F00011F016EF12F0F2A000EF12F002EF12F05F
:1024000016EF12F081BE07EF12F009EF12F016EF8F
:1024100012F06950D8A40FEF12F011EF12F016EF7E
:1024200012F0010E696E010E3DEC1CF09DAC1BEF2D
:1024300012F01DEF12F026EF12F09EAC22EF12F018
:1024400024EF12F026EF12F09EEC1CF09DA42BEF6F
:1024500012F02DEF12F036EF12F09EA432EF12F0D0
:1024600034EF12F036EF12F09CEC1CF0A0A03BEF22
:1024700012F03DEF12F046EF12F0A1A042EF12F081
:1024800044EF12F046EF12F09AEC1CF09DA84BEFCF
:1024900012F04DEF12F056EF12F09EA852EF12F02C
:1024A00054EF12F056EF12F098EC1CF09DAA5BEF7F
:1024B00012F05DEF12F066EF12F09EAA62EF12F0DA
:1024C00064EF12F066EF12F0A0EC1CF0F2AA6BEFD2
:1024D00012F06DEF12F076EF12F0F2A472EF12F03C
:1024E00074EF12F076EF12F0D8EC1BF09DA27BEFA8
:1024F00012F07DEF12F086EF12F09EA282EF12F042
:1025000084EF12F086EF12F08BEC1CF010C0F4FF99
:102510000FC0F3FF0EC0DAFF0DC0D9FF0CC0FBFFE8
:102520000BC0FAFF6F9211000001FB51D96EDA6AFD
:10253000DF50D8A49EEF12F0A0EF12F0B4EF12F02B
:10254000FB51D96EDA6A020ED9260C0EDE18D8A419
:10255000ACEF12F0AEEF12F0D1EF12F0BD50F00B75
:102560000C09BD6ED1EF12F0FB51D96EDA6ADE04B0
:10257000D8A4BDEF12F0BFEF12F0D1EF12F0FB5173
:10258000D96EDA6A020ED9260C0EDE18D8A4CBEF6B
:1025900012F0CDEF12F0D1EF12F0BA50F00B0C099F
:1025A000BA6E000E236E000E246E800E256E400E55
:1025B000266EFB51D96EDA6A050ED926DECFFCF005
:1025C000DDCFFDF0FCC011F0FDC012F0136A146AFB
:1025D000000E7DEC13F011C01FF012C020F013C0EC
:1025E00021F014C022F0E7EC0CF01FC000F120C075
:1025F00001F121C002F122C003F10001FB51D96EAB
:10260000DA6A070ED926DF38030BFC6FFC51116E16
:10261000126A136A146A010E7DEC13F011C023F0E4
:1026200012C024F013C025F014C026F000C11FF022
:1026300001C120F002C121F003C122F0E7EC0CF04F
:102640001FC004F120C005F121C006F122C007F12E
:10265000000E556E000E566E800E576EBF0E586EF1
:102660000001FB51D96EDA6A070ED926DF500F0B35
:10267000FC6FFC51116E126A136A146A010E7DEC34
:1026800013F011C023F012C024F013C025F014C0C1
:1026900026F004C11FF005C120F006C121F007C1DA
:1026A00022F0E7EC0CF01FC03CF020C03DF021C050
:1026B0003EF022C03FF0000E386E240E396EF40E4C
:1026C0003A6E4A0E3B6EFCEC0EF038C051F039C049
:1026D00052F03AC053F03BC054F086EC0AF051C0BF
:1026E000F3F052C0F4F053C0F5F054C0F6F011EC22
:1026F00017F00001F351CB6E1200196E1950D8B4C7
:1027000084EF13F086EF13F0A8EF13F014BE8DEFF3
:1027100013F08BEF13F0A8EF13F011C015F012C0F7
:1027200016F013C017F014C018F0151E161E171E51
:10273000181E152A000E16221722182215C01BF08B
:1027400016C01CF017C01DF018C01EF0B0EF13F03B
:1027500011C01BF012C01CF013C01DF014C01EF0FD
:102760001150121013101410D8A4B9EF13F0BBEFCE
:1027700013F0C5EF13F0000E116E000E126E000E76
:10278000136E000E146E56EF14F0960E1A6ECFEF05
:1027900013F01A2AD8901E321D321C321B32000E42
:1027A0001B14156E000E1C14166E000E1D14176EF1
:1027B000FE0E1E14186E1550161017101810D8A4FF
:1027C000E4EF13F0E6EF13F0C9EF13F0F4EF13F0BA
:1027D0001A2A010E1B26000E1C221D221E22D89032
:1027E0001E321D321C321B32000E1B14156E000EE1
:1027F0001C14166E000E1D14176EFF0E1E14186E9C
:102800001550161017101810D8A409EF14F00BEF7C
:1028100014F0E8EF13F013EF14F01A06D8901B36FB
:102820001C361D361E361DBE18EF14F01AEF14F0BC
:1028300022EF14F0020E1A6020EF14F022EF14F0D1
:102840000DEF14F01AB027EF14F029EF14F02AEF6F
:1028500014F01D9ED8901A321AC015F0166A176A25
:10286000186A15C018F0176A166A156A15501B12F7
:1028700016501C1217501D1218501E121950D8B4A1
:1028800044EF14F046EF14F04EEF14F014BE4DEF89
:1028900014F04BEF14F04EEF14F01E8E1BC011F02D
:1028A0001CC012F01DC013F01EC014F01200010E67
:1028B000156E1350D96EDA6ADF50D8A462EF14F0A7
:1028C00064EF14F0A4EF14F088EF14F0BD50F00B97
:1028D0000809BD6EEBEF14F0BD50F00B0909BD6E99
:1028E000EBEF14F0BD50F00B0209BD6EEBEF14F0EE
:1028F000BD50F00B0A09BD6EEBEF14F0BD50F00BAC
:102900000B09BD6EEBEF14F0000E156EEBEF14F03B
:102910001350D96EDA6A020ED926DF50020AD8B4F3
:1029200072EF14F00A0AD8B466EF14F0010AD8B4B2
:102930006CEF14F0030AD8B478EF14F0010AD8B49D
:102940007EEF14F084EF14F01350D96EDA6ADE04CF
:10295000D8A4ADEF14F0AFEF14F0EBEF14F0CFEF1D
:1029600014F0BA50F00B0809BA6EEBEF14F0BA503D
:10297000F00B0909BA6EEBEF14F0BA50F00B020934
:10298000BA6EEBEF14F0BA50F00B0A09BA6EEBEF27
:1029900014F0BA50F00B0B09BA6EEBEF14F01350B1
:1029A000D96EDA6A020ED926DF50020AD8B4BDEF1A
:1029B00014F00A0AD8B4B1EF14F0010AD8B4B7EF92
:1029C00014F0030AD8B4C3EF14F0010AD8B4C9EF65
:1029D00014F084EF14F013C011F058EC1AF01550F5
:1029E00012001150D8B4F7EF14F0F9EF14F009EF1A
:1029F00015F01150D96EDA6ADF30E832E832070B91
:102A0000126E070E126407EF15F009EF15F062EF72
:102A100015F0000E176E7AEF15F01150D96EDA6AC4
:102A2000DF30E832E832070B126E010E136E122A05
:102A30001CEF15F0D8901336122E1AEF15F0135024
:102A4000FF0A146E1150D96EDA6ADF50070B020DBF
:102A5000F350940FD96EDA6ADECF15F0DDCF16F0A1
:102A600015C0D9FF16C0DAFF1450DF1678EF15F045
:102A70001150D96EDA6ADF30E832E832070B126E95
:102A8000010E136E122A47EF15F0D8901336122E4E
:102A900045EF15F01150D96EDA6ADF50070B020DC1
:102AA000F350940FD96EDA6ADECF14F0DDCF15F053
:102AB00014C0D9FF15C0DAFF1350DF1278EF15F0FC
:102AC00078EF15F01150D96EDA6ADFBE6AEF15F0B3
:102AD0006DEF15F0010E6EEF15F0000E000AD8B480
:102AE0000DEF15F0010AD8B438EF15F060EF15F0CE
:102AF000010E176E175012001150D8B482EF15F066
:102B000084EF15F094EF15F01150D96EDA6ADF30CA
:102B1000E832E832070B136E070E136492EF15F0DC
:102B200094EF15F0EDEF15F0000E186E04EF16F0AF
:102B30001150D96EDA6ADF30E832E832070B136ED3
:102B4000010E146E132AA7EF15F0D8901436132E29
:102B5000A5EF15F01450FF0A156E1150D96EDA6A00
:102B6000DF50070B020DF3508A0FD96EDA6ADECF01
:102B700016F0DDCF17F016C0D9FF17C0DAFF1550D9
:102B8000DF1602EF16F01150D96EDA6ADF30E83244
:102B9000E832070B136E010E146E132AD2EF15F0F4
:102BA000D8901436132ED0EF15F01150D96EDA6A82
:102BB000DF50070B020DF3508A0FD96EDA6ADECFB1
:102BC00015F0DDCF16F015C0D9FF16C0DAFF14508E
:102BD000DF1202EF16F002EF16F01250136E146AB5
:102BE0001450000AD8B4F7EF15F0EBEF15F01350BE
:102BF000000AD8B498EF15F0010AD8B4C3EF15F065
:102C0000EBEF15F0010E186E18501200010E156E44
:102C10001350D96EDA6ADF50D8A411EF16F013EF13
:102C200016F049EF16F031EF16F0BD50F00B040925
:102C3000BD6E86EF16F0BD50F00B0509BD6E86EF38
:102C400016F0BD50F00B0609BD6E86EF16F0BD50B4
:102C5000F00B0709BD6E86EF16F0000E156E86EFBD
:102C600016F01350D96EDA6A020ED926DF50040A24
:102C7000D8B415EF16F0010AD8B41BEF16F0030A0A
:102C8000D8B421EF16F0010AD8B427EF16F02DEFD3
:102C900016F01350D96EDA6ADE04D8A452EF16F09B
:102CA00054EF16F086EF16F06EEF16F0BA50F00BF8
:102CB0000409BA6E86EF16F0BA50F00B0509BA6E29
:102CC00086EF16F0BA50F00B0609BA6E86EF16F0D2
:102CD000BA50F00B0709BA6E86EF16F01350D96E92
:102CE000DA6A020ED926DF50040AD8B456EF16F07D
:102CF000010AD8B45CEF16F0030AD8B462EF16F0FC
:102D0000010AD8B468EF16F02DEF16F013C011F0D9
:102D100058EC1AF0155012000150D8B492EF16F08A
:102D200094EF16F0A4EF16F00150D96EDA6ADF3096
:102D3000E832E832070B036E070E0364A2EF16F0C9
:102D4000A4EF16F0FBEF16F010EF17F00150D96E5C
:102D5000DA6ADF30E832E832070B036E010E046EE8
:102D6000032AB5EF16F0D8900436032EB3EF16F011
:102D70000450FF0A056E0150D96EDA6ADF50070B66
:102D8000020DF3508A0FD96EDA6ADECF06F0DDCF7E
:102D900007F006C0D9FF07C0DAFF0550DF1610EFB5
:102DA00017F00150D96EDA6ADF30E832E832070BEB
:102DB000036E010E046E032AE0EF16F0D89004367D
:102DC000032EDEEF16F00150D96EDA6ADF50070BE2
:102DD000020DF3508A0FD96EDA6ADECF05F0DDCF2F
:102DE00006F005C0D9FF06C0DAFF0450DF1210EF6D
:102DF00017F010EF17F00250036E046A0450000A37
:102E0000D8B405EF17F0F9EF16F00350000AD8B464
:102E1000A6EF16F0010AD8B4D1EF16F0F9EF16F0CC
:102E200012000001F535F6355E6E5E50D8A41BEF3A
:102E300017F01DEF17F027EF17F0000EF36F000EDD
:102E4000F46F000EF56F000EF66F94EF17F0F3C0FD
:102E5000F7F0F4C0F8F0F5C0F9F0F6C0FAF0200E83
:102E600037EF17F0D890FA33F933F833F733E82E09
:102E700032EF17F0F7515D6EF58FFF0EF317FF0E6F
:102E8000F417FF0EF517000EF617960E5E5E5EBE87
:102E90004EEF17F04CEF17F064EF17F05E50800A1A
:102EA000970FD8B056EF17F058EF17F05AEF17F00A
:102EB0001DEF17F0D890F633F533F433F3335E3E5D
:102EC0005AEF17F07CEF17F01F0E5E646AEF17F0F1
:102ED0006CEF17F074EF17F01DEF17F0D890F33781
:102EE000F437F537F6375E065E50D8A47AEF17F060
:102EF0007CEF17F06EEF17F05D50D8B482EF17F04B
:102F000084EF17F08CEF17F0F61FF51FF41FF36D29
:102F1000000EF423F523F623F3C0F3F0F4C0F4F02D
:102F2000F5C0F5F0F6C0F6F012001150D8A49BEFF2
:102F300017F09DEF17F0A1EF17F0000E126E06EFDD
:102F400018F01150D96EDA6A060ED926DFA0ABEF61
:102F500017F0ADEF17F004EF18F0AB881150D96EF1
:102F6000DA6A060ED926DFA2B8EF17F0BAEF17F02B
:102F7000DBEF17F09D8A9D8A1150D96EDA6A0A0E2E
:102F8000D926DECFDEF0DDCFDFF01150D96EDA6A60
:102F90000C0ED926DECFDCF0DDCFDDF01150D96E7E
:102FA000DA6A0E0ED926DECFDAF0DDCFDBF0F28E54
:102FB000F28CE8EF17F01150D96EDA6A060ED926B6
:102FC000DFB2E5EF17F0E7EF17F0E8EF17F09D9AA3
:102FD0001150D96EDA6A060ED926DFA4F2EF17F087
:102FE000F4EF17F0F7EF17F0AB8C04EF18F0115077
:102FF000D96EDA6A060ED926DFB401EF18F003EFB6
:1030000018F004EF18F0AB9C010E126E1250120073
:103010000001FE51D8A40FEF18F011EF18F016EFD1
:1030200018F0000E0101086F79EF18F0FE51D96E0B
:10303000DA6ADF50D8A41FEF18F021EF18F025EF5F
:1030400018F0F00EBD1632EF18F0FE51D96EDA6AA4
:10305000DE04D8A42EEF18F030EF18F032EF18F09D
:10306000F00EBA16FE51D96EDA6A010ED926DF507B
:10307000D8A43DEF18F03FEF18F045EF18F0FEC070
:1030800013F006EC16F06CEF18F0FE51D96EDA6A08
:10309000010ED926DE04D8A450EF18F052EF18F034
:1030A00058EF18F0FEC013F057EC14F06CEF18F066
:1030B000FE51D96EDA6A010ED926020EDE18D8A4A6
:1030C00064EF18F066EF18F06CEF18F0FEC0FBF03C
:1030D00094EC12F06CEF18F00001FE51030F196E22
:1030E000F5EC1AF0FEC011F0F4EC1BF0010E01013A
:1030F000086F085112001150D8A481EF18F083EF27
:1031000018F087EF18F0000E126EDAEF18F0115079
:10311000D96EDA6A040ED926DFA091EF18F093EF8A
:1031200018F0D8EF18F0AC8A1150D96EDA6A040E94
:10313000D926DFA29EEF18F0A0EF18F0AFEF18F03D
:103140009D889D881150D96EDA6A080ED926DECF87
:10315000E0F0DDCFE1F0F28EF28CBCEF18F0115010
:10316000D96EDA6A040ED926DFB2B9EF18F0BBEFD8
:1031700018F0BCEF18F09D981150D96EDA6A040E61
:10318000D926DFA4C6EF18F0C8EF18F0CBEF18F07F
:10319000AC8CD8EF18F01150D96EDA6A040ED9262B
:1031A000DFB4D5EF18F0D7EF18F0D8EF18F0AC9CDB
:1031B000010E126E125012001150D8A4E2EF18F056
:1031C000E4EF18F0E8EF18F0000E136E22EF19F09C
:1031D000CA941150D96EDA6A040ED926DF38030B6F
:1031E000126ECA501218FC0B1218CA6E1150D96E0A
:1031F000DA6A040ED926DF500F0B126E1246124601
:103200001246CA501218870B1218CA6E1150D96E86
:10321000DA6A030ED926DF50CC6E1150D96EDA6A05
:10322000030ED926DF50636E9D829E921150D96E97
:10323000DA6ADECFC2F0DDCFC3F0F28EF28CCA8440
:10324000010E136E135012001350D8A42AEF19F078
:103250002CEF19F030EF19F0000E166E69EF19F02F
:10326000D59E13C011F026EC1BF013C011F0ACEC8E
:1032700019F013C011F0BBEC1BF01350D96EDA6AD1
:10328000030ED926DECF14F0DDCF15F015C014F0F3
:10329000156A1450D76E1350D96EDA6A030ED92608
:1032A000DF50D66E1350D96EDA6A030ED926DECF00
:1032B0005FF0DDCF60F0F28AF2941350D96EDA6AD3
:1032C000DECF61F0DDCF62F0F28EF28CD58E010E92
:1032D000166E165012000150D8B471EF19F073EF4A
:1032E00019F083EF19F00150D96EDA6ADF30E83255
:1032F000E832070B026E070E026481EF19F083EFCC
:1033000019F085EF19F0ABEF19F00150D96EDA6AB8
:10331000DF30E832E832070B026E010E036E022A3C
:1033200094EF19F0D8900336022E92EF19F0015065
:10333000D96EDA6ADF50070B020DF3508A0FD96E8F
:10334000DA6ADECF04F0DDCF05F004C0D9FF05C096
:10335000DAFF0350DF1A12001150D96EDA6A050E37
:10336000D926DFA4B6EF19F0B8EF19F0BBEF19F0CA
:10337000D59AE6EF19F01150D96EDA6A050ED92602
:10338000DFB4C5EF19F0C7EF19F0E6EF19F0D58AF1
:103390001150D96EDA6A050ED926DFA2D2EF19F0E4
:1033A000D4EF19F0D7EF19F0D598E6EF19F01150D6
:1033B000D96EDA6A050ED926DFB2E1EF19F0E3EF34
:1033C00019F0E6EF19F0D588E6EF19F012001C505D
:1033D000D8A4EDEF19F0EFEF19F0F3EF19F0000EAC
:1033E0001E6E1FEF1AF067C01FF01C50D96EDA6A0C
:1033F000DF50070B1D6E1F501D18F80B1D181F6E98
:103400001C50D96EDA6ADF30E832E832070B1D6EE5
:103410001D461D461D461F501D18C70B1D181F6E4B
:103420001C50D96EDA6ADFAC02D01F8C01D01F9C11
:103430001F9E1F0E196EF5EC1AF0010E1E6E1E5027
:1034400012000850D8A427EF1AF029EF1AF02BEF3A
:103450001AF057EF1AF065C00AF00850D96EDA6A10
:10346000DF50070B096E0A500918F80B09180A6E8D
:103470000850D96EDA6ADF30E832E832070B096E9D
:103480000946094609460A500918C70B09180A6E69
:103490000850D96EDA6ADFAC02D00A8C01D00A9CDF
:1034A0000A9E0A0E016E000E026E8CEC16F01200DF
:1034B0001150D96EDA6A040ED926DF50D8A463EF12
:1034C0001AF065EF1AF069EF1AF0B196B18C8CEF33
:1034D0001AF01150D96EDA6A040ED926DE04D8A487
:1034E00074EF1AF076EF1AF07AEF1AF0B186B19C09
:1034F0008CEF1AF01150D96EDA6A040ED926020E3A
:10350000DE18D8A486EF1AF088EF1AF08CEF1AF0C4
:10351000B196B19C8CEF1AF012000650D8A493EF2C
:103520001AF095EF1AF097EF1AF0C1EF1AF064C095
:1035300008F00650D96EDA6ADF50070B076E0850A4
:103540000718F80B0718086E0650D96EDA6ADF30D4
:10355000E832E832070B076E074607460746085071
:103560000718C70B0718086E0650D96EDA6ADFAC69
:1035700002D0088C01D0089C089E080E016E6BECEE
:1035800019F01200340EF66E370EF76E000EF86E5C
:1035900000EE80F010EE42F00900F5CFEEFFE550AE
:1035A000E150FAE11E0EF66E390EF76E000EF86E5F
:1035B00000EE69F010EE06F00900F5CFEEFFE550E1
:1035C000E150FAE100EEC2F02D0EEE6AE806FDE1F0
:1035D00000EE5FF00A0EEE6AE806FDE16F906F9272
:1035E000000EF86E000171EF1CF01950D8B4FBEF1B
:1035F0001AF0FDEF1AF00DEF1BF01950D96EDA6AD0
:10360000DF30E832E832070B1A6E070E1A640BEF50
:103610001BF00DEF1BF011EF1BF0000E1B6E24EFE3
:103620001BF019C011F0F1EC14F01B6E19C011F071
:103630001950D96EDA6A000EDFBC010E126E7CECF6
:1036400015F01B6E010E1B6E1B5012001150D96E2F
:10365000DA6A050ED926DFA030EF1BF032EF1BF03F
:1036600041EF1BF0D5961150D96EDA6A020ED926B9
:10367000DF50126ED5501218F80B1218D56E4EEF9F
:103680001BF01150D96EDA6A050ED926DFB04BEF68
:103690001BF04DEF1BF04EEF1BF0D5861200000122
:1036A000FE51D8A456EF1BF058EF1BF05CEF1BF057
:1036B000000EFF6F74EF1BF0AB9E948E948CFEC0D7
:1036C000FBF001EC08F00001FF6FFEC011F07BEC95
:1036D00018F00001FF6FFEC011F095EC17F000012B
:1036E000FF6FAB8E010EFF6FFF5112001150D8B467
:1036F0007CEF1BF07EEF1BF086EF1BF01250D8A47E
:1037000084EF1BF086EF1BF08AEF1BF0000E136EA8
:1037100098EF1BF09EAA8FEF1BF091EF1BF08AEF42
:103720001BF01250D96EDA6AAECFDFFF010E136EB6
:1037300013501200800F810F820F830F840F890FA7
:103740008A0F8B0F8C0F8D0F920F930F940F950F85
:10375000960F80250000010001000000000000001D
:103760000000000200120050C31100000000000021
:103770001E3803DC0B051150D96EDA6A050ED92606
:10378000DFA6C5EF1BF0C7EF1BF0CAEF1BF0D58C0F
:10379000D7EF1BF01150D96EDA6A050ED926DFB6C5
:1037A000D4EF1BF0D6EF1BF0D7EF1BF0D59C120027
:1037B000F2946050D76E5FC0D6FF61506210D8B4EB
:1037C000E4EF1BF0E6EF1BF0F3EF1BF002D8F3EF92
:1037D0001BF00500FA6E6150FD6E6250FE6EF850EF
:1037E000FF6EFA50120012009D849E941150D96E03
:1037F000DA6A080ED926DECFE6F0DDCFE7F0F28EEA
:10380000F28CA080A1901150D96EDA6A0B0ED926E5
:10381000DECFE4F0DDCFE5F0F28EF28C1200330E55
:10382000686015EF1CF017EF1CF021EF1CF06E0E16
:10383000066E8DEC1AF06D0E066E8DEC1AF029EF07
:103840001CF06E0E086E21EC1AF06D0E086E21EC65
:103850001AF012009E0E0001FE6F4FEC1BF0AE0E30
:103860000001FE6F08EC18F0BC0E136E24EC19F08A
:10387000EA0E116EDCEC18F01200016EF2900150AD
:10388000D8A445EF1CF047EF1CF049EF1CF049EFBE
:103890001CF01200016EF2900150D8A452EF1CF0FF
:1038A00054EF1CF056EF1CF056EF1CF01200016EA6
:1038B000F2900150D8A45FEF1CF061EF1CF063EFB1
:1038C0001CF063EF1CF01200016EF2900150D8A4BE
:1038D0006CEF1CF06EEF1CF070EF1CF070EF1CF042
:1038E000120086EC1CF09E0E116E680E126E76ECC5
:1038F0001BF073EF1CF007EF00F06E0E1C6EE7EC90
:1039000019F06D0E1C6EE7EC19F012007DEC1CF046
:103910002AEC1CF012009E9263C0CCFF1200010141
:1039200001011203F0921200F0901200F2921200C4
:103930009D981200A19012009E9412009E9C12006D
:02394000120073
:020000040030CA
:0E000000FF02091EFF8181FF0FC00FE00F40BD
:00000001FF
